:020000040800F2
:10000000288C0020810200080F1C00087D190008C0
:100010000D1C0008B9030008CD24000800000000F2
:10002000000000000000000000000000A101000826
:10003000BB03000800000000FD010008C91E000805
:100040009B0200089B0200089B0200089B0200081C
:100050009B0200089B0200089B0200089B0200080C
:100060009B0200089B0200089B0200089B020008FC
:100070009B0200089B0200089B0200089B020008EC
:100080009B0200089B0200089B0200089B020008DC
:100090009B0200089B0200089B0200089B020008CC
:1000A0009B0200089B0200089B0200089B020008BC
:1000B0009B0200089B0200089B0200089B020008AC
:1000C0009B0200089B0200089B0200089B0200089C
:1000D0009B0200089B0200089B0200089B0200088C
:1000E0009B0200089B0200089B0200089B0200087C
:1000F0009B0200089B0200089B0200089B0200086C
:100100009B0200089B0200089B0200089B0200085B
:100110009B0200089B020008611F00089B02000868
:100120009B0200089B0200089B0200089B0200083B
:100130009B0200089B0200089B0200089B0200082B
:100140009B0200089B0200089B0200089B0200081B
:100150009B0200089B0200089B0200089B0200080B
:100160009B0200089B0200089B0200089B020008FB
:100170009B0200089B0200089B0200080000000090
:100180009B0200089B020008DFF810D000F002F983
:10019000004800470D250008AFF30080288C0020A0
:1001A0002C4B1968086800F05AB880F30988BFF32F
:1001B0006F8F4FF0000080F311887047000000003F
:1001C00008480068006880F308884FF0000080F35A
:1001D000148862B661B6BFF34F8FBFF36F8F00DF35
:1001E00000BF00BF08ED00E0DFF80C00016841F43B
:1001F00070010160704700BF88ED00E0EFF30980F7
:10020000BFF36F8F134B1A681EF0100F08BF20ED5D
:10021000108A20E9F04F106009B44FF0500080F3CD
:100220001188BFF34F8FBFF36F8F03F03BF84FF090
:10023000000080F3118809BC1968086800F014B840
:100240001EF0100F08BF00F014B880F30988BFF348
:100250006F8F704714000020EFF30580704730C89F
:10026000B0E8C04FFFF7A1BF30C8B0E8C04FFFF7FC
:10027000E7BFB0EC088AB0EC08CAFFF7E6BF0000A1
:100280000648804706480047FEE7FEE7FEE7FEE730
:10029000FEE7FEE7FEE7FEE7FEE7FEE7511F000888
:1002A000890100082DE9F05F0546002092469B4633
:1002B00088460646814640241BE02846414647467C
:1002C000224600F056F853465A46C01A914110D3C0
:1002D00011461846224600F03DF82D1A67EB01083A
:1002E0004F4622460120002100F034F817EB0009A8
:1002F0004E41201EA4F10104DFDC484631462A4667
:10030000434600F000B830BCBDE8C09F40EA01039E
:100310009B0703D009E008C9121F08C0042AFAD2BB
:1003200003E011F8013B00F8013B521EF9D270477F
:10033000D2B201E000F8012B491EFBD27047002227
:10034000F6E710B513460A4604461946FFF7F0FFD4
:10035000204610BD202A04DB203A00FA02F10020DA
:1003600070479140C2F1200320FA03F319439040F3
:100370007047202A04DB203A21FA02F0002170475E
:1003800021FA02F3D040C2F12002914008431946FD
:1003900070470000064C074D06E0E06840F001039E
:1003A00094E8070098471034AC42F6D3FFF7F0FE0C
:1003B000803D0008A03D0008FEE7704772B6FEE7EA
:1003C0002DE9F04FDFF8EC9100220127A9F1040B91
:1003D00085B003254FF00F0C09F1040AABF1040EB0
:1003E000E0E000BF07FA02F416EA04037ED00E79BB
:1003F00006F00306012E01D0022E1FD1866800965A
:10040000560005FA06F80496009E26EA08060096AD
:10041000D1F80C80049E08FA06F8009E48EA060807
:10042000C0F80880466891F80480A643C8F3001815
:1004300008FA02F848EA0608C0F80480D1F80480F7
:100440006FEA0806B6070AD1C66AA643C8F3C00415
:1004500094403443C4620C79E443A4070AD0C468CE
:100460004FEA420805FA08F6B4438E6806FA08F621
:100470002643C6600C7904F00304022C11D1D40881
:1004800000EB84060296D6F820805407E60E0CFA9C
:1004900006F428EA04080C69B440029E44EA080401
:1004A000346204685600029605FA06F6B4430E79E3
:1004B00006F00308029E08FA06F848EA0408C0F8A5
:1004C00000804C6814F4403F6BD03B4C266E46F0E5
:1004D00001062666246E22F0030604F0010400944F
:1004E000364C34440294A468960700E059E04FEA81
:1004F00016780CFA08F6B443B0F1904F04D0304EA1
:10050000B04203D101261BE0002619E02D4EB04277
:1005100001D1022614E02C4EB04201D103260FE097
:100520002A4EB04201D104260AE0294EB04201D140
:10053000052605E0274EB04201D1062600E0072639
:1005400006FA08F62643029CA660D9F800404E46FB
:10055000D1F804809C435FEAC82800D51C4334606E
:10056000DAF800405646D1F804809C435FEA8828B8
:1005700000D51C433460DBF800405E46D1F80480AF
:100580009C435FEA883800D51C433460DEF80040A5
:100590007646D1F804809C435FEAC83800D51C43F6
:1005A0003460521C0B681E46D3407FF41BAF05B06D
:1005B00000F012B8080401400010024000000140A1
:1005C0000004004800080048000C004800100048E3
:1005D000001400480018004830BCBDE8C08F0AB1C4
:1005E00081617047816270470148806870470000F0
:1005F0000400002090F84120202A24D190F84020C7
:10060000012A20D0012280F84020242280F84120B5
:100610000268136823F0010313600268136823F46F
:1006200080531360026813680B43136001680A6803
:1006300042F001020A60202180F84110002180F878
:100640004010084670470220704790F84120202A49
:1006500022D190F84020012A1ED0012280F84020AB
:10066000242280F841200268136823F001031360FC
:100670000268136823F4706343EA01211160016882
:100680000A6842F001020A60202180F8411000212E
:1006900080F84010084670470220704770B504008B
:1006A00004D094F84100002510B106E0012070BD8F
:1006B00084F84050204600F04FF8242084F8410090
:1006C0002068016821F0010101606068216820F064
:1006D000706008612068816821F400418160E068F1
:1006E0000128A06830D040F4044021688860E068A8
:1006F0000228206841682AD021F400614160206806
:100700004168144A114341602068C16821F40041E6
:10071000C160D4E904010843A16940EA01202168CD
:10072000C860D4E9070108432168086020680168AF
:1007300041F0010101606564202084F841002563D7
:1007400084F84250002070BD40F40040CDE741F4F1
:100750000061D3E70080000230B5A9B0044614213F
:1007600022A8FFF7ECFD88216846FFF7E8FD17494E
:100770002068884227D100254020149500906846C3
:1007800000F024F908B1FFF719FE114CE06C40F0BD
:100790000200E064E06C22A900F002002790C02073
:1007A00022901220CDE923050320259004202690D5
:1007B0000848FFF705FEA06D40F40010A065A06D8D
:1007C00000F40010279029B030BD00000054004014
:1007D0000010024000040048024881680278114479
:1007E000816070470400002010B50024032000F051
:1007F0009FF80F2000F008F808B1012401E000F094
:100800004FF8204610BD000030B505461F4887B0A0
:10081000816D41F010018165806D06A900F0100026
:10082000009001A800F04CFB0498B0B100F068FB08
:1008300040001749174AB0FBF1F11748491E026002
:10084000416040F2E7320021C0E90321816081610B
:1008500000F0FDFE040003D015E000F051FBE8E7D6
:100860000D4800F027FF04000DD1362000F032F8CB
:10087000102D07D200222946362000F039F807480B
:10088000056000E0012407B0204630BD00100240A2
:1008900040420F0000100040D4010020080000205A
:1008A0000B4882B0016E41F001010166016E01F05A
:1008B00001010091816D41F080518165806D0022C0
:1008C00000F0805000900F21901E02B000F010B890
:1008D00000100240002809DB00F01F0201219140B6
:1008E0004009800000F1E020C0F8001170470000CE
:1008F000F0B40E4B1B680C46C3F30223C3F107058B
:10090000042D00D90425191D072901D2002300E078
:10091000DB1E012606FA05F1491E214099409E4042
:10092000761E16403143F0BC01F0D1BD0CED00E065
:10093000064900F0070208684FF6FF03184040EA36
:100940000220034A10430860704700000CED00E0ED
:100950000000FA051649B0F5007F0868C0F3412091
:1009600009D0022805D0086820F4C06040F48060F7
:100970000860002070470128FBD0086820F4C060A0
:1009800040F4007008600B483222006850430A4A65
:10099000B0FBF2F0401C00E0401E4A69520501D550
:1009A0000028F9D148694005E3D5032070470000CD
:1009B000007000401000002040420F000248006814
:1009C00000F4C06070470000007000402DE9F84F4F
:1009D000044600270088E54D3E46010504F1200B42
:1009E0001DD5606E78B1B0F5800F11D0B0F5000F55
:1009F00004D0B0F5400F22D001270FE0E86840F4A2
:100A00008030E8601BE00021201D01F001F903E0C7
:100A10000021584601F092F9070010D03E46208888
:100A2000C00426D5A06EC0B1B0F1807F1AD0B0F15D
:100A3000007F0DD0B0F1407F19D0012718E0D5F824
:100A40008800616E20F440000843C5F88800E6E79E
:100A5000E86840F48030E86009E00021201D01F0E2
:100A6000D7F803E00021584601F068F90746F7B1CE
:100A70003E46206880033AD5A86D4FF00008C000BC
:100A800009D4A86D40F08050A865A86D4FF001080A
:100A900000F080500090DFF8D8A2DAF8001041F49E
:100AA0008071CAF80010FFF79FFD814610E0D5F86D
:100AB0008800A16E20F040700843C5F88800D8E790
:100AC000FFF792FDA0EB0900022801D9032705E0FA
:100AD000DAF80000C005F3D5002F7CD04FEA0706F6
:100AE000B8F1000F03D0A86D20F08050A8652078E1
:100AF000C00707D0D5F88800A16B20F00300084399
:100B0000C5F888002078800707D5D5F88800E16B04
:100B100020F00C000843C5F888002078400707D56E
:100B2000D5F88800216C20F030000843C5F8880013
:100B30002078000707D5D5F88800616C20F0C00048
:100B40000843C5F888002078C00607D5D5F8880086
:100B5000A16C20F440700843C5F888002078800616
:100B600007D5D5F88800E16C20F440600843C5F84B
:100B700088002088800507D5D5F88800E16D20F42D
:100B800040200843C5F888002088400507D5D5F8DF
:100B90008800216E20F440100843C5F888002078B2
:100BA000400607D5D5F88800216D20F44050084351
:100BB000C5F888002078000607D5D5F88800616D53
:100BC00020F440400843C5F888002088C00509D5B6
:100BD000D5F8880000E01CE0A16D20F44030084307
:100BE000C5F8880020884FF0006780044FF08068C7
:100BF0004FD5D5F88800E16E20F040600843C5F875
:100C00008800E06EB8423CD1E86840F48010E860AB
:100C10003FE0D5F8900010F4407015D0D4F884105F
:100C2000814211D0D5F89000D5F8901020F4407092
:100C300041F48031C5F89010D5F8901021F480313E
:100C4000C5F89010C5F89000C00710D0FFF7CCFC95
:100C5000074641F2883906E0FFF7C6FCC11B49454B
:100C600001D903263CE7D5F890008007F4D5D5F8E4
:100C70009000D4F8841020F440700843C5F8900028
:100C80002EE7404505D10121201D00F0C1FF00B134
:100C900006462068000317D5D5F88800216F20F09C
:100CA00040600843C5F88800206FB84204D1E86866
:100CB00040F48010E86007E0404505D10121201D87
:100CC00000F0A6FF00B106462068400317D5D5F80E
:100CD0008800616F20F040600843C5F88800606FAD
:100CE000B84204D1E86840F48010E86007E040456D
:100CF00005D10121201D00F08BFF00B106462088A0
:100D000040041AD5D5F88800A16F20F04050084360
:100D1000C5F88800A06FB0F1805F03D0B0F1005F2C
:100D200005D00AE00221201D00F072FF03E002213D
:100D3000584601F003F800B106462088000407D5A4
:100D4000D5F88800E16F20F080400843C5F888009E
:100D50002068C00307D555F8880FD4F8801020F01C
:100D6000004008432860304600F004B800100240FC
:100D70000070004018BCBDE8E08F00002DE9F0478E
:100D80000F4605006BD0494E306800F00700B842AE
:100D900009D2306820F0070038433060306800F036
:100DA0000700B8425BD12878414C80070AD5A86873
:100DB000A16801F0F001884204D9A16821F0F00196
:100DC0000143A1602878C0072CD06868032811D09F
:100DD000022812D0216898B1490500293FDAA1689C
:100DE00021F003010143A160FFF7FEFB804641F2C1
:100DF000883910E021688901EFE721688903ECE771
:100E00008907EAE7FFF7F0FBA0EB0801494502D9A3
:100E10000320BDE8F087A068696800F00C00B0EB23
:100E2000810FEFD1287880070AD5A868A16801F062
:100E3000F001884204D2A16821F0F0010143A160D1
:100E4000306800F00700B8420BD9306820F0070086
:100E500038433060306800F00700B84201D001200C
:100E6000D7E72878400705D5A068E96820F4E06056
:100E70000843A0602878000706D5A068296920F4F7
:100E8000605040EAC100A06000F05EF8A168094A25
:100E9000C1F30311515C01F01F01C840064908600D
:100EA00006480068BDE8F047FFF7AEBC00200240EE
:100EB000001002402C3D0008100000200800002017
:100EC0000F2202600C4A936803F0030343609368A7
:100ED00003F0F0038360936803F4E063C3609268F7
:100EE0004FF4E06303EAD20202610448006800F0B4
:100EF0000700086070470000001002400020024018
:100F00000548064900688968054AC1F30221515C19
:100F100001F01F01C840704710000020001002407F
:100F20006C3D00080548064900688968054AC1F318
:100F3000C221515C01F01F01C84070471000002021
:100F4000001002406C3D000870B52549002318468A
:100F50008A68CC6812F00C0204F00306214C4FEAB8
:100F6000640509D00C2A05D0042A32D0082A00D101
:100F7000284670BD012E10D10B681B0704D4D1F890
:100F80009430C3F3032302E00B68C3F30313164E3C
:100F900056F82330DAB10C2AEBD1C86800F0030010
:100FA000022818D0032818D01846CA68CB68C2F3A4
:100FB0000212C3F306234343521CB3FBF2F2C86888
:100FC000C0F34160401C4000B2FBF0F070BD184619
:100FD00070BD204670BD2046E7E72846E5E70000E3
:100FE000001002400024F4003C3D00082DE9F843C5
:100FF00004006FD0FD4DA86800F00C06E86800F012
:1010000003072078C00664D576B10C2E01D1012FDC
:101010000AD0A069002828687AD040F00100286032
:10102000FFF7E2FA80465DE02868800702D5A069F4
:101030000028DED0216A2868000703D5286800F060
:10104000F00004E0D5F89400F02202EA101081428A
:1010500016D9084600F0F6FE00283BD1286840F07B
:10106000080028602868216A20F0F0000843286002
:101070006868E16920F47F4040EA0120686016E07A
:10108000286840F0080028602868216A20F0F000F5
:10109000084328606868E16920F47F4040EA012045
:1010A000686026B9206A00F0CDFE0028D5D1FFF790
:1010B0004BFFA968CE4AC1F30311515C01F01F0137
:1010C000C840CC490860CC480068FFF79DFB002869
:1010D0007ED12EE0CAE000BFFFF786FAA0EB080041
:1010E000022876D828688007F6D5286840F00800DE
:1010F00028602868216A20F0F000084328606868AA
:10110000E16920F47F4040EA0120686011E0FFE7D8
:1011100020F001002860FFF767FA804606E000BF74
:10112000FFF762FAA0EB08000228DAD828688007E7
:10113000F6D42078C00740D0082E18D00C2E01D14C
:10114000032F14D06068B0F5803F17D0B0F5A02F02
:10115000286817D020F480302860286820F4802088
:1011600028606068E0B1FFF73FFA804614E0286825
:10117000800322D56068002878D01EE0286840F4FB
:101180008030EDE740F480202860F7E7FFF72CFA85
:10119000A0EB08006428A4D828688003F6D50CE0EA
:1011A000FFF722FA804605E0FFF71EFAA0EB0800E1
:1011B000642896D828688003F6D4207880073BD529
:1011C000042E11D00C2E01D1022F0DD0E06801E0C9
:1011D00086E1D6E0002828681ED040F480702860A0
:1011E000FFF702FA07460CE0286840050CD5E068D6
:1011F0000028C1D008E000BFFFF7F6F9C01B0228A5
:1012000093D828684005F7D56868217C20F0F8500D
:1012100040EA016068600FE020F480702860FFF70A
:10122000E3F9074605E000BFFFF7DEF9C01B02281F
:10123000B1D828684005F7D42078000729D560691F
:101240000028D5F8940012D040F00100C5F89400B1
:10125000FFF7CAF9074604E0FFF7C6F9C01B0228EA
:1012600099D8D5F894008007F6D512E000E120F077
:101270000100C5F89400FFF7B7F9074605E000BF85
:10128000FFF7B2F9C01B02287BD8D5F8940080077D
:10129000F6D42078400766D5A86D0027C00008D492
:1012A000A86D40F08050A865A86D012700F080501F
:1012B000009052480168C90512D40168814641F482
:1012C00080710160FFF790F9804605E0FFF78CF927
:1012D000A0EB0800022854D8D9F80000C005F5D5C5
:1012E000A068012816D00528D5F8900017D020F066
:1012F0000100C5F89000D5F8900020F0040000BF70
:10130000C5F89000A06841F28839C0B1FFF76CF9C8
:1013100080460FE0D5F8900040F00100F0E740F083
:101320000400C5F89000F5E7FFF75EF9A0EB0801AF
:10133000494526D8D5F890008007F5D50EE0FFF78F
:1013400053F9804606E000BFFFF74EF9A0EB080115
:10135000494516D8D5F890008007F5D41FB1A86D7F
:1013600020F08050A865A06AF0B302280AD00C2EA5
:101370007ED0286820F080702860FFF735F9044699
:10138000B0E0ACE0E868E26A00F00301914229D1E4
:10139000216B00F0700209011039914222D1626B79
:1013A00000F4FE41B1EB022F1CD1A26B00F400311E
:1013B000072A01D0012200E00022914212D1A18F20
:1013C00000F4C00249084905A1F50011914209D174
:1013D00094F8401000F0C06049084906A1F100717E
:1013E00081425ED00C2E0BE072E000000010024043
:1013F0002C3D000810000020080000200070004074
:1014000079D02868400176D42868C00073D4286851
:1014100020F080702860FFF7E7F8064605E000BF7F
:10142000FFF7E2F8801B022859D828688001F7D41A
:10143000D4E90B016FF00F0202EB01110843A18FF9
:101440005204490802EB4151626B41EA0221084310
:1014500094F840104FF07E42490802EB4161084386
:10146000A16B090940EA4140E968244A114000E0C3
:1014700041E00843E860286840F080702860E86830
:1014800040F08070E860FFF7AFF8044605E000BF69
:10149000FFF7AAF8001B022821D828688001F7D599
:1014A00027E02868800124D4286840F080702860F4
:1014B000E86840F08070E860FFF796F8044604E0C2
:1014C000FFF792F8001B022809D828688001F7D599
:1014D0000FE000BFFFF788F8001B022802D90320A5
:1014E000BDE8F88328688001F4D4E868044908401E
:1014F000E8600020F4E70120F2E700008C809DF90D
:10150000FCFFEEFE70B5040009D0606A002540B112
:1015100025616561A56294F85D0040B10CE0012091
:1015200070BD6068B0F5827FF4D0E561F2E784F8C1
:101530005C50204600F056F8022084F85D002068D8
:10154000016821F040010160E1684FF4E0629142DE
:1015500001D9002001E04FF48050B1F5706F02D046
:10156000914200D0A562A188228901F4827102F41F
:1015700004421143227C02F002021143227D02F058
:1015800001021143228B02F400721143227F02F008
:101590003802114394F8202002F080021143228D7A
:1015A00002F40052114322681160A169042202EA88
:1015B000114194F8242000F4805002F010021143ED
:1015C00094F8342002F008021143A28902F47062F8
:1015D00011430143206841602566012084F85D00C5
:1015E000002070BD10B586B0044614216846FEF791
:1015F000A6FE1349206888421FD11248016E41F4AB
:1016000080510166016E01F480510591C16C41F079
:101610000101C164C06C694600F001000590A02082
:1016200000900220019000200290032003900520EA
:1016300004904FF09040FEF7C3FE06B010BD0000CE
:10164000003001400010024070477047704710B5ED
:10165000040003D094F83D0010B107E0012010BD54
:10166000002084F83C00204600F022F8022084F894
:101670003D00211D206800F079FC012084F848001D
:1016800084F83E0084F83F0084F8400084F841006C
:1016900084F8420084F8430084F8440084F845004C
:1016A00084F8460084F8470084F83D00002010BD0F
:1016B0007047000090F83D10012901D001207047CB
:1016C000022180F83D100168CA6842F00102CA6038
:1016D00000681149884211D0B0F1804F0ED00F49F7
:1016E00088420BD00E49884208D00E49884205D066
:1016F0000D49884202D00D49884207D181680C4AC1
:101700001140062906D0B1F5803F03D0016841F0B1
:101710000101016000207047002C014000040040DE
:1017200000080040000C004000340140004001402F
:101730000700010070472DE9F04104460068C668C3
:1017400005694FF00007A90713D5B10711D5F91E98
:10175000016101202077206880698007204602D03F
:10176000FFF7E8FF04E000F08BF8204600F089F86E
:101770002777680716D5700714D521686FF0040025
:101780000861022020772068806910F4407F20469D
:1017900002D0FFF7CFFF04E000F072F8204600F01F
:1017A00070F82777280715D5300713D521686FF013
:1017B00008000861042020772068C069800720465F
:1017C00002D0FFF7B7FF04E000F05AF8204600F01F
:1017D00058F82777E80616D5F00614D521686FF07B
:1017E00010000861082020772068C06910F4407F4D
:1017F000204602D0FFF79EFF04E000F041F82046AB
:1018000000F03FF82777E80708D0F00706D02168F6
:101810006FF001000861204600F034F8280601D47A
:10182000A80408D5300606D521686FF40250086177
:101830002046FFF70AFFE80508D5300606D52168DF
:101840006FF4807008612046FFF7FEFE680608D539
:10185000700606D521686FF040000861204600F050
:101860001BF8A8060AD5B00608D521686FF020003D
:1018700008612046BDE8F041FFF7E8BEBDE8F08111
:101880007047704700680349884201D1FEF7A4BF42
:101890007047000000100040704710B5040002D0EF
:1018A000E06F10B107E0012010BD002084F878003F
:1018B000204600F025F82420E0672068016821F028
:1018C00001010160606A10B1204600F0B3FB2046C0
:1018D00000F08EFC0128E7D02068416821F4904197
:1018E00041602068816821F02A01816020680168D8
:1018F00041F0010101602046BDE8104000F0FEBB50
:1019000030B5A9B00446142122A8FEF718FD88219D
:101910006846FEF714FD16492068884225D1002547
:1019200002240F9568460094FFF750F808B1FEF7BF
:1019300045FD1048816D41F400318165816D01F4F0
:1019400000312791C16C41F00801C164C06C22A92B
:1019500000F008002790602081E8310003202590E6
:10196000072026900448FEF72BFD29B030BD00006B
:101970000044004000100240000C0048FEE7000058
:1019800010B5044A0021044800F00EFE0349086027
:1019900010BD0000083D0008C11E00080000002026
:1019A0002DE9F04F87B014216846FEF7C8FC564871
:1019B000C16C41F00401C164C16C01F004010591E6
:1019C000C16C41F08001C164C16C01F080010591DE
:1019D000C16C41F00101C164C16C01F001010591CC
:1019E000C16C41F00201C164C16C01F002010591BA
:1019F000C16C41F01001C164C16C01F0100105918E
:101A0000C16C41F00801C164C06CDFF8009100F0C6
:101A100008000590012231214846FEF7E0FD002232
:101A20000C214846FEF7DBFD4FF0904A0022422190
:101A30005046FEF7D4FD012218215046FEF7CFFD97
:101A4000DFF8CCB0002204215846FEF7C8FD4FF461
:101A50008068012241462F48FEF7C1FD002442F272
:101A60000200CDE90004694648460294FEF7A8FC4E
:101A70000D2000900125CDE90154694648460394A4
:101A8000FEF79EFC0A200090CDE9015469465046BD
:101A90000394FEF795FC0426CDE9006469465046A0
:101AA0000294FEF78DFC50200227CDE90005CDE918
:101AB000024769465046FEF783FC3020CDE9000519
:101AC000CDE9024769464846FEF77AFC0096CDE923
:101AD0000154694658460394FEF772FC4FF4C170F6
:101AE000CDE9000469460C480294FEF769FCCDF884
:101AF0000080CDE90154694606480394FEF760FC76
:101B000007B000F00BB800000010024000080048C9
:101B100000040048000C00480010004830BCBDE83C
:101B2000C08F0000134810B511490160124941608F
:101B300000210122C0E90212016141618161C1619C
:101B40000162FEF7ABFD08B1FEF738FC0021094841
:101B5000FEF750FD08B1FEF731FC00210548FEF705
:101B600074FD002803D0BDE81040FEF727BC10BD6F
:101B700000540040940000208129F100134810B562
:101B8000114901604FF4827141604FF4004181605E
:101B90004FF4E061C16000214FF400720161C0E9BF
:101BA00005121022C0E9072107224162C0E90A128A
:101BB000016308214163FFF7A5FC002803D0BDE8BD
:101BC0001040FEF7FBBB10BD00300140E8000020D4
:101BD0000D4810B50B4901604FF4E131416000211F
:101BE00081600C22C160C0E904128161C16101629F
:101BF0004162FFF752FE002803D0BDE81040FEF717
:101C0000DDBB10BD004400404C010020FEE7FEE7B4
:101C10002DE9F041444C05468846E06800268107DE
:101C200028680DD0E16801F00301814216D1A8B106
:101C3000E0686968C0F30210401C88420ED120E0C1
:101C4000012804D0022805D0032807D108E0216824
:101C5000890701E021684905002907DB01265FE0CB
:101C60002168890302D421684903F5E7E1686A68BD
:101C70006FF00F0321F0730103EB021211430143D4
:101C8000E160206820F080602060FEF7ADFC074630
:101C900005E000BFFEF7A8FCC01B022837D820686B
:101CA0000001F7D4B8F1000F18D0B8F1010F1ED021
:101CB000287D4FF07E41400801EB4060A96840EA72
:101CC00001202169194A114008432061206840F031
:101CD00080602060FEF788FC07461AE0A868E96883
:101CE0000002090940EA41402169114AEBE7288ACC
:101CF0001049400801EB4050A96840EA01202169E1
:101D00000D4AE0E7FEF770FCC01B022801D903264C
:101D100006E020680001F5D52069A9690843206123
:101D20003046BDE8F081000000100240FF80FFF95E
:101D3000FF80FDFF0000E0FFFF809FFF2DE9F041E5
:101D40003D4C06468846E0680025810730680DD086
:101D5000E16801F00301814216D1A8B1E068716821
:101D6000C0F30210401C88420ED120E0012804D0AC
:101D7000022805D0032807D108E02168890701E07F
:101D800021684905002907DB012551E02168890305
:101D900002D421684903F5E7E16872686FF00F0328
:101DA00021F0730103EB021211430143E16020684B
:101DB00020F080502060FEF717FC074605E000BFCA
:101DC000FEF712FCC01B022829D820688000F7D437
:101DD000B8F1000F15D0307C4FF07E41400801EB88
:101DE0004060B16840EA01206169144A114008432B
:101DF0006061206840F080502060FEF7F5FB0746E8
:101E00000FE0B068F1680002090940EA41406169E9
:101E10000B4AEBE7FEF7E8FBC01B022801D90325BC
:101E200006E020688000F5D560697169084360614B
:101E30002846BDE8F081000000100240FF80FFF955
:101E4000FF80FDFFF8B51C4D06460024A86DC000BC
:101E500002D5FEF7B3FD0DE0A86D40F08050A865F7
:101E6000A86D00F080500090FEF7A8FDA96D21F04C
:101E70008051A965B0F5007F04D0802E07D94FF0BE
:101E800003040AE0802E08D9A02E01D804E001D175
:101E9000022402E0702E00D101240848016821F0DC
:101EA000070121430160006800F00700A04201D053
:101EB0000120F8BD0020F8BD0010024000200240C3
:101EC000012000F036FBFBE710B54FF0E020006981
:101ED00001F064FD012803D0BDE8104001F08EBA86
:101EE00010BD10B596B044216846FEF728FA1421BB
:101EF00011A8FEF724FA4FF40070FEF72BFD08B18D
:101F000072B6FEE701210804CDE900100220032487
:101F10000A90CDE90B4114210D910721CDE90E1056
:101F200010906846FFF762F808B172B6FEE70F201E
:101F3000CDE911040020139014901590042111A8EC
:101F4000FEF71CFF002801D072B6FEE716B010BDE8
:101F50000248016841F470010160704788ED00E0BB
:101F60000148FFF7E8BB0000D40100202DE9F0474D
:101F70000268284B284D294E294F2A4C4FF0804AA1
:101F8000984209D0504507D0A84205D0B04203D0AE
:101F9000B84201D0A04204D122F0700C4A6842EA53
:101FA0000C02DFF884C0DFF88480DFF88490984268
:101FB0000FD050450DD0A8420BD0B04209D0B84246
:101FC00007D0A04205D0604503D0404501D0484528
:101FD00003D122F44075CA682A434D6922F0800279
:101FE0002A438D68C5620D688562984207D0A04279
:101FF00005D0604503D0404501D0484501D109696D
:102000000163016841F00401016001214161026046
:10201000BDE8F087002C01400004004000080040AB
:10202000000C0040003401400040014000440140E9
:102030000048014090F82410090706D501684A6855
:10204000436B22F400421A434A6090F82410C907F7
:1020500006D001684A68836A22F400321A434A6053
:1020600090F82410890706D501684A68C36A22F4EB
:1020700080321A434A6090F82410490706D5016857
:102080004A68036B22F480221A434A6090F82410B5
:10209000C90606D501688A68836B22F480521A4308
:1020A0008A6090F82410890606D501688A68C36B97
:1020B00022F400521A438A6090F82410490611D580
:1020C00001684A68036C22F480121A434A60016C6A
:1020D000B1F5801F06D101684A68436C22F4C00242
:1020E0001A434A6090F82410090606D501684A6828
:1020F000806C22F4002202434A6070472DE9F843C5
:1021000000260446C0F88460FEF76EFA8046206818
:1021100000684FF0200500076FF07E4712D5434658
:10212000002229042046009700F086F950B121686A
:1021300051E8000F20F0800041E80002002AF6D1AB
:10214000E56721E020680068400722D54346002269
:102150004FF480012046009700F06EF9C8B1216865
:1021600051E8000F20F4907041E80002002AF6D1F7
:102170002068083050E8001F21F0010140E80012FB
:10218000002AF5D1C4F8805084F878600320BDE8B7
:10219000F883E567C4F8805044F8606F666026767F
:1021A0000020F4E7016851E8002F22F4907241E822
:1021B0000023002BF6D10168083151E8002F22F0EE
:1021C000010241E80023002BF5D1016E012908D15D
:1021D000026852E8001F21F0100142E80013002BB2
:1021E000F6D12021C0F88010002101668166704779
:1021F0002DE9F0410446016880682269E3691043D3
:10220000626900251A431043814F0A68814B1A40C6
:1022100002430A6020684168E26821F4405111439A
:1022200041602168A069B94201D0226A10438A68DE
:1022300022F4306202438A607749226877488A42F2
:102240000DD1D0F8880010F0030006D0012866D028
:10225000022854D0032851D163E001204FE0704997
:102260008A420BD1D0F8880010F00C0047D0042827
:1022700045D0082851D00C2840D152E069498A4203
:102280000BD1D0F8880010F0300038D0102846D09C
:10229000202842D0302831D143E063498A420BD113
:1022A000D0F8880010F0C00029D0402837D080280E
:1022B00033D0C02822D134E05C498A420ED1D0F814
:1022C000880010F440701AD0B0F5807F27D0B0F5A8
:1022D000007F22D0B0F5407F10D122E0BA420DD16C
:1022E000D0F8880010F4406009D0B0F5806F16D0A7
:1022F000B0F5006F11D0B0F5406F12D010204C49EE
:1023000000264FF40043BA422ED160B102280DD00E
:1023100004280DD008286FD10EE00220EFE704203A
:10232000EDE70820EBE7FEF7EBFD03E00B4603E0EB
:10233000FEF70AFE030060D0626802EB420098429A
:102340005AD8B3EB023F57D8190E1B025008181881
:1023500071410023FDF7A6FF364AA0F54071914276
:102360004AD82168C86048E0E2694FF6EF779A42A0
:1023700027D1092840D2DFE800F005080D3F213FB2
:102380003F3F0E00FEF7BCFD01E0FEF7CBFD030072
:1023900001D132E00B466068590001EB5001B1FBFE
:1023A000F0F0A0F11001B94226D84FF6F0710140CB
:1023B000C0F3420001432068C1601EE0FEF7C4FD87
:1023C000E5E7092818D2DFE800F005080D171D170A
:1023D00017170E00FEF794FD01E0FEF7A3FD0300C2
:1023E00001D10AE00B46606803EB5001B1FBF0F04D
:1023F000A0F11001B94208D90125A6662846E66673
:10240000BDE8F081FEF7A0FDE9E780B2A9E7000092
:1024100000800040F369FFEF0038014000100240E7
:102420000044004000480040004C00400050004084
:102430000024F400FFFC0F002DE9F04799461746F1
:102440000D4604464FF00008089E33E0701C31D062
:10245000FEF7CAF8A0EB0900B04218D8BEB1206858
:102460000168490726D5802D24D0402D22D0C1698E
:10247000C94309070DD4082505622046FFF792FEDF
:10248000C4F8845084F878800120BDE8F0870320E8
:10249000FBE7C069C04300050CD421684FF400601D
:1024A00008622046FFF77EFE2020C4F8840084F8EE
:1024B0007880ECE72068C06935EA000004D000208D
:1024C000B842C3D00020E0E70120F9E7FEE70907A2
:1024D000090E002804DB00F1E02080F800147047AA
:1024E00000F00F0000F1E02080F8141D704702E0BA
:1024F00008C8121F08C1002AFAD17047704700208F
:1025000001E001C1121F002AFBD17047FEF76CF9F0
:10251000FFF7E7FCFFF744FAFFF730FBFFF758FB44
:10252000FFF700FB00F012F8FFF72AFA00F020F89E
:10253000FEE710B5EFF3058111B16FF0050403E07C
:10254000002408B100F0FAFD204610BDEFF305802D
:1025500010B16FF0050070470448016811B14FF0E9
:10256000FF307047012101600020704764000020A7
:1025700010B5EFF3058010B16FF0050010BD0848ED
:102580000168012902D04FF0FF3010BD054A00213B
:1025900082F8141D0221016000F038FE002010BDF9
:1025A000640000200BE000E02DE9FF414FEA010349
:1025B0004FF00005EFF30581039549BB40B3802739
:1025C000182100244AB3166806B1344696691EB134
:1025D0003146761E382E02D21679F60703D0002037
:1025E00004B0BDE8F081566906B1B708D2F808C05A
:1025F000BCF1000F0DD0D5685C2D18D312693AB12B
:1026000036B18DE806103A46214601F09BF9039059
:102610000DE0D6685EB912694AB903AACDE9001285
:10262000BAB2214601F05EF9012800D00395039863
:10263000D6E700002DE9F041134C0F460546E66849
:102640002068001D00F046FC681C07D137B12168E6
:10265000BDE8F0410D48091D00F08CBC20683544F0
:10266000B5424560216805D2A06BBDE8F041091D67
:1026700000F068BC606B091D00F064FCA06A854234
:1026800000D2A562BDE8F0811400002010070020F0
:102690002DE9F041054600F079FC2D4CA068401C66
:1026A000A06020682B4F10B1606930B32BE025602B
:1026B000A068012827D1002606EB860007EB8000E2
:1026C00000F032FC761C382EF6D3234800F02CFCA8
:1026D0002148143000F028FC1F48283000F024FC6A
:1026E0001D483C3000F020FC1B48503000F01CFC22
:1026F000194860631430A06305E02068E96AC06A85
:10270000884200D82560606A401C60626864E86A9C
:102710002169884200D9206100EB800007EB80002E
:10272000291D00F027FC00F051FC606900280CD046
:102730002068E96AC06A884207D208494FF0805091
:102740000860BFF34F8FBFF36F8FBDE8F0810000CB
:102750001400002060020020C006002004ED00E00C
:1027600038B500F013FC104C2068C8B90F4800F0D1
:10277000DBFB0E48143000F0D7FB0C48E06014304F
:1027800020610A4B0020F03B009003F15002102121
:102790000A2000F049FE206010B105A100F098FC6D
:1027A000BDE8384000F012BC5000002014080020A2
:1027B000546D72510000000030B4026C0B46002AC8
:1027C0000BD0C1681144C1608468A14201D3016883
:1027D000C16030BC1846FDF799BD30BC70472DE98B
:1027E000F041856B174604460026026C82B1C7B1E2
:1027F000E068FDF78BFDE168206C091AE160226852
:10280000914202D2A168081AE060022F16D017E0A8
:102810002068A8B9A06801F039F906460020A06038
:102820000EE06068FDF772FD216C6068084460602E
:10283000A168884204D32068606001E005B16D1E84
:102840006D1CA5633046BDE8F08110B5044690F8D4
:10285000590058B101280CD002280FD0502080F325
:102860001188BFF34F8FBFF36F8FFEE7206B00F02F
:10287000C1FB2046BDE8104000F0BCBB10BD00000D
:102880000F4847F23051420705D0C01D0C4A20F0D6
:102890000700821A891A0B4A00230144C2E9000387
:1028A0000839183A21F0070111604B600B600B1AD0
:1028B000C0E9001393604FF00040536050617047CF
:1028C000F40E002080000020144E154CA6F29C4708
:1028D0004FF08058DFF84C9012E000BF00F056FB3C
:1028E000F068C568281D00F0F5FAA068401EA060D9
:1028F0006068401E606000F069FB2846FFF7A5FF96
:1029000060680028EAD138680128F9D9C9F8008040
:10291000BFF34F8FBFF36F8FF2E70000FC0600207C
:102920001400002004ED00E070B51D46049C51B178
:10293000C4F80020C4E90F010121204600F0A8FDE1
:1029400084F84C5070BD2460F4E700002DE9F05F7E
:102950008846DDE90B941546834691009A460A9E07
:10296000A522206BFDF7E4FC6FF00301206B01EB67
:102970008501084420F00707780707D0502080F32E
:102980001188BFF34F8FBFF36F8FFEE70025B8F1BB
:10299000000F0FD05FF00000221818F8001082F826
:1029A000341018F8001011B1401C1028F4D384F82A
:1029B000435001E084F83450382E00D33726E662C5
:1029C000C4E91365201D00F0BAFA04F1180000F004
:1029D000B6FA2461C6F138006462A061656584F8C6
:1029E000585052465946384600F05EFA2060B9F118
:1029F000000F01D0C9F8004000F000B830BCBDE8BD
:102A0000C09F000030B5114900E011460A688242BB
:102A1000FBD34B685C18844203D14068184448607B
:102A2000084643681C18944209D1084C183C246895
:102A3000A24209D052681A4442600A6812680260D1
:102A4000814200D0086030BD0460F9E780000020BA
:102A500070B5002441600B4D0061914206D8D11A37
:102A60008269914206D2011D286907E09A4203D289
:102A7000994201D3012403E0011DE86800F062FAE5
:102A8000204670BD5000002010B5044600F07EFACC
:102A9000A06B28B15FF0000400F098FA204610BD4A
:102AA0000124F9E730B589B03C4D6EE00498002868
:102AB00006DADDE90601059A90470498002864DBF0
:102AC000069C606910B1201D00F004FA03A800F014
:102AD000D7F8024604980A2857D2DFE800F0050527
:102AE000052D334A05052D3394F8280040F00100E8
:102AF00084F828000599A069059B01442046FFF74A
:102B0000A7FF68B3216A2046884794F82800400749
:102B10003BD5002000900598A16900234218194672
:102B2000204601F0BDF8D8B9502080F31188BFF3DA
:102B30004F8FBFF36F8FFEE714F8280F20F00100CE
:102B4000207022E094F8280040F0010084F828006A
:102B50000598A06128B1811813462046FFF778FF39
:102B600013E0502080F31188BFF34F8FBFF36F8FB6
:102B7000FEE794F82800810703D4204600F03AFAD3
:102B800003E020F0010084F82800002204A928684E
:102B900000F0D2FD002889D109B030BD50000020DE
:102BA0002DE9FC410F46054600F074FB01A800F03A
:102BB00067F80446019818B100F0E0FFBDE8FC8119
:102BC000254EAFB130690068D0B30027291B3A46C3
:102BD000306800F091FA00F0D1FF0028EED11F49D3
:102BE0004FF080500860BFF34F8FBFF36F8FE5E762
:102BF000A542EBD800F0C2FFF0682746C068C46861
:102C0000201D00F067F994F82800410719D5A06944
:102C10002B4641193A462046FFF71AFFA8B100207B
:102C20000346014600902A46204601F039F860B973
:102C3000502080F31188BFF34F8FBFF36F8FFEE7F3
:102C400007E020F0010084F82800216A2046884728
:102C5000B4E70127BAE700005000002004ED00E0CF
:102C60000648416B096829B1416BC968C968496860
:102C7000816270474FF0FF31FAE700001400002036
:102C800070B5054600F098FE064E0446B0688442D2
:102C900003D200F009F8012000E00020286020465F
:102CA000B46070BD50000020F8B5194D20E0C06838
:102CB000C4680668201D00F00DF9216A2046884787
:102CC00094F82800400713D5A0693044B04206D9D3
:102CD00024616060211DE86800F034F908E00020FC
:102CE0000346014600903246204600F0D9FF38B135
:102CF000E86801680029DAD12969C5E90310F8BD3F
:102D0000502080F31188BFF34F8FBFF36F8FFEE722
:102D10005000002008484068401C4FF0500080F3ED
:102D2000118804D0BFF34F8FBFF36F8FFEE7BFF35F
:102D30004F8FBFF36F8FFEE788000020074CE068DD
:102D4000016841B1C0680021D0F80000FFF728FFFA
:102D5000FFF7A8FEF3E701210020F7E7500000206D
:102D60002DE9F041044600F011F994F9455004F1C1
:102D7000240609E0606A48B1304600F0C7FE08B199
:102D800000F00AFA6D1E6DB2002DF3DC4FF0FF3635
:102D900084F8456000F01AF900F0F8F894F944500E
:102DA00004F1100709E0206948B1384600F0AEFE92
:102DB00008B100F0F1F96D1E6DB2002DF3DC84F85E
:102DC0004460BDE8F04100F001B900002DE9F04198
:102DD0000546002700F05EFA324E306808B9FFF76A
:102DE0004FFD706905424ED1C5B3083568070ED056
:102DF00005F00700C0F108000544680707D050201F
:102E000080F31188BFF34F8FBFF36F8FFEE72DB3B1
:102E10007068854237D82348183001460C6801E0B5
:102E200020460C466168A94202D221680029F7D1E8
:102E300031688C4227D007682168016060680837D4
:102E4000411B10290FD96019420708D0502080F388
:102E50001188BFF34F8FBFF36F8FFEE713E0416020
:102E60006560FFF7CFFD61687068401A7060B268F6
:102E7000904200D2B060706901430020C4E90001B3
:102E8000F068401CF06000F079FE780707D0502011
:102E900080F31188BFF34F8FBFF36F8FFEE7384683
:102EA000BDE8F0816800002010B5031F4FF080746A
:102EB0001C601B1F21F001011960191F044B0B60DE
:102EC00014390A60091F6FF0020244380A6010BD0D
:102ED000152D0008D0E9013201699A60D0E901237B
:102EE0005A604A68824201D182684A6000220261C7
:102EF0000868401E0860086870470000034B0360C4
:102F000003F15C0008608020106070473C080020DE
:102F1000044B036003F15C0008604FF480701060A4
:102F200070470000980A002000F108014FF0FF32BE
:102F3000C0E90112C16001610021016070470021F8
:102F40000161704730B50B685A1C02D000F10802CD
:102F500002E0026904E02246546825689D42FAD9DD
:102F600053684B6099608A60516008610168491C30
:102F7000016030BD42684A6093688B609368596015
:102F8000916008610168491C01607047502080F31E
:102F90001188BFF34F8FBFF36F8F0A494868401CF9
:102FA000486001280CD10848006810F0FF0F07D0D6
:102FB000502080F31188BFF34F8FBFF36F8FFEE770
:102FC000704700008800002004ED00E008494868D0
:102FD00028B1401E486001D180F31188704750200D
:102FE00080F31188BFF34F8FBFF36F8FFEE70000B0
:102FF0008800002070B500282AD0164DA0F10804E2
:1030000060686969084207D1502080F31188BFF3D6
:103010004F8FBFF36F8FFEE722683AB1502080F3E5
:103020001188BFF34F8FBFF36F8FFEE78843606057
:1030300000F030F960686968084468602046FFF76E
:10304000E1FC2869401C2861BDE8704000F096BD95
:1030500070BD0000680000204FF0E02000210161F9
:10306000816105494FF47A720968B1FBF2F1491E9A
:1030700041610721016170471000002010B5FDF784
:10308000EBF8114910280ED300F1E02090F8F0037E
:103090000A78904207D2502080F31188BFF34F8FF7
:1030A000BFF36F8FFEE709480068896800F4E060AD
:1030B000884207D9502080F31188BFF34F8FBFF3A8
:1030C0006F8FFEE710BD0000880000200CED00E0CF
:1030D00010B5084B002200BF53F832401CB1521CFF
:1030E000082AF9D310BD43F8321003EBC20148603F
:1030F00010BD00002002002070B515460E460446A3
:10310000FFF744FF94F944100020491C01D184F8D2
:10311000440094F94510491C01D184F84500FFF79B
:1031200055FFA06B28B92A46314604F1240000F06F
:1031300051F82046BDE87040FFF712BE10B50200FE
:1031400014D00F48006B38B1502080F31188BFF3C2
:103150004F8FBFF36F8FFEE700F09CF80021104601
:10316000FFF768FA00F00AFD002807D105494FF083
:1031700080500860BFF34F8FBFF36F8F10BD00000A
:103180001400002004ED00E002490A6A0260C968E8
:10319000416070471400002001490120C861704758
:1031A0001400002010B50C4650B1094909681831C7
:1031B000FFF7C8FE2046BDE810400121FFF73ABAEC
:1031C000502080F31188BFF34F8FBFF36F8FFEE75E
:1031D0001400002070B514460D4668B10A4909680C
:1031E0001831FFF7C7FE0CB14FF0FF3521462846D6
:1031F000BDE87040FFF71EBA502080F31188BFF37E
:103200004F8FBFF36F8FFEE71400002030B587B0FB
:103210000024039405AA04A903A80494FFF76EFEF2
:10322000DDE903010094CDE90110002315A1174841
:10323000059A00F087FB164D0028E8621FD000F0C9
:10324000FFFC012809D0401C19D1502080F31188BF
:10325000BFF34F8FBFF36F8FFEE7502080F31188CD
:10326000BFF34F8FBFF36F8F4FF0FF30A862012085
:103270006861EC6007B0BDE8304000F045B807B0C9
:1032800030BD000049444C4500000000C92800083A
:10329000140000200248016B491C016370470000C4
:1032A00014000020164810B5016B11B10121C16155
:1032B00010BD0021C1610169124A01E0B9B1491E86
:1032C00001EB810352F82330002BF7D001EB81038F
:1032D00002EB830202F1080453685B685360A34267
:1032E00001D15B685360DA680260016110BD502053
:1032F00080F31188BFF34F8FBFF36F8FFEE700009D
:1033000014000020600200201CB537480168374ACD
:10331000914207D1502080F31188BFF34F8FBFF344
:103320006F8FFEE700683149491E884207D150205F
:1033300080F31188BFF34F8FBFF36F8FFEE72C49E7
:1033400008780190FF20087008788DF800009DF83B
:1033500000009DF8002000F0F000904207D05020BF
:1033600080F31188BFF34F8FBFF36F8FFEE79DF897
:103370000000204C00F0500020700720A06005E005
:103380009DF8002052008DF80020401E9DF800207E
:103390001206F5D4A060032807D0502080F31188CE
:1033A000BFF34F8FBFF36F8FFEE74FF44070A06005
:1033B000019808700C482030016841F470010160E8
:1033C000016841F070410160FFF746FE0020606037
:1033D000FCF70AFF0848016841F040410160FCF732
:1033E000EFFE00201CBD000000ED00E071C20F41A7
:1033F00000E400E08800002034EF00E010B5502029
:1034000080F31188BFF34F8FBFF36F8F00F0DAFAAC
:1034100018B104494FF080500860002080F31188F3
:1034200010BD000004ED00E038B5049D18B153B1A3
:10343000CAB181B120E0502080F31188BFF34F8FD3
:10344000BFF36F8FFEE7502080F31188BFF34F8FDB
:10345000BFF36F8FFEE7502080F31188BFF34F8FCB
:10346000BFF36F8FFEE739B1502080F31188BFF3AF
:103470004F8FBFF36F8FFEE750241C46012384F863
:1034800046302B460094FFF74FFA204638BD000027
:1034900070B50D46040025D0FFF778FDD4E90F2064
:1034A000216802FB0011A1600021A1632168616015
:1034B0000A46D4E90F01401E00FB0121E1602146CC
:1034C0004FF0FF3001F8440F487004F110008DB147
:1034D000FFF72AFD04F12400FFF726FDFFF776FD34
:1034E000012070BD502080F31188BFF34F8FBFF3D0
:1034F0006F8FFEE721690029F0D000F007FB00285C
:10350000ECD004494FF080500860BFF34F8FBFF3F9
:103510006F8FE3E704ED00E02DE9FF4782B01D4621
:103520008A464FF00008040003D0BAF1000F08D01B
:1035300011E0502080F31188BFF34F8FBFF36F8FDE
:10354000FEE7206C38B1502080F31188BFF34F8F15
:10355000BFF36F8FFEE7022D0AD1E06B012807D081
:10356000502080F31188BFF34F8FBFF36F8FFEE7BA
:1035700000F014FA3F4F4FF000094FF0805648B961
:10358000049838B1502080F31188BFF34F8FBFF3F8
:103590006F8FFEE7FFF7FAFCA06BE16B884207D361
:1035A000022D05D00498D0B1B8F1000F1AD01EE05A
:1035B0002A4651462046FFF712F9616A19B104F113
:1035C000240000F0A3FA20B13E60BFF34F8FBFF399
:1035D0006F8FFFF7FBFC012006B0BDE8F087FFF717
:1035E000F5FC22E06846FFF7CFFD4FF00108FFF73A
:1035F000EDFCFFF74FFEFFF7C9FC94F94400401CB7
:1036000001D184F8449094F94500401C01D184F81C
:103610004590FFF7DBFC04A9684600F029F930B1BA
:103620002046FFF79DFB00F0A9FA0020D4E7FFF742
:10363000ADFCA06BE16B884213D1FFF7C7FC04F12E
:1036400010000499FFF7AEFD2046FFF789FB00F05C
:1036500095FA00289ED13E60BFF34F8FBFF36F8F66
:1036600098E7FFF7B3FC2046FFF77AFB00F086FAF5
:1036700090E7000004ED00E02DE9F0471F4690467A
:103680008946040003D0B9F1000F08D011E05020A2
:1036900080F31188BFF34F8FBFF36F8FFEE7206C6D
:1036A00038B1502080F31188BFF34F8FBFF36F8F75
:1036B000FEE7022F0AD1E06B012807D0502080F3EB
:1036C0001188BFF34F8FBFF36F8FFEE7FFF7D6FC74
:1036D0005020EFF3118680F31188BFF34F8FBFF3B3
:1036E0006F8FA06BE16B884206D3022F04D00020BD
:1036F00086F31188BDE8F08794F94550A06B3A46EF
:1037000049462046FFF76BF8681C04D06D1C84F80E
:1037100045500120ECE7606A0028FAD004F124004B
:1037200000F0F4F90028F4D0B8F1000FF1D0012135
:10373000C8F80010EDE700002DE9F747002683B038
:103740008A46040003D0BAF1000F08D011E05020DF
:1037500080F31188BFF34F8FBFF36F8FFEE7206CAC
:1037600038B1502080F31188BFF34F8FBFF36F8FB4
:10377000FEE700F013F9DFF8F4804FF000094FF096
:10378000805748B9059838B1502080F31188BFF3AD
:103790004F8FBFF36F8FFEE7FFF7F8FBA56BC5B147
:1037A00051462046FFF708F86D1EA563206950B109
:1037B00004F1100000F0AAF928B1C8F80070BFF3B6
:1037C0004F8FBFF36F8FFFF701FC012006B0BDE8FC
:1037D000F087059808B11EB106E0FFF7F7FB27E078
:1037E0006846FFF7D1FC0126FFF7F0FBFFF752FD1B
:1037F000FFF7CCFB94F94400401C01D184F84490BD
:1038000094F94500401C01D184F84590FFF7DEFB98
:1038100005A9684600F02CF8002820460AD0FFF7DA
:103820009FFA00F0ABF92046FFF72EF90028B3D03D
:103830000020CBE7FFF728F990B104F124000599A7
:10384000FFF7B0FC2046FFF78BFA00F097F900284D
:10385000A2D1C8F80070BFF34F8FBFF36F8F9BE703
:103860002046FFF77DFA00F089F995E704ED00E0C6
:103870002DE9F0410C46050011D0C4B1FFF786FBDD
:10388000174BDA686E682068911B471C17D02F68A9
:103890001B6A9F4219D0964217D8012410E050208D
:1038A00080F31188BFF34F8FBFF36F8FFEE7502077
:1038B00080F31188BFF34F8FBFF36F8FFEE70024B3
:1038C000FFF784FB2046BDE8F081884205D9401A05
:1038D00020602846FFF758FCF1E700202060DCE775
:1038E000140000202DE9FF5F8346DDE90E8799462D
:1038F00016468A469000FFF769FA05001CD05C2046
:10390000FFF764FA040014D00020256384F85900FE
:10391000CDE90240CDE900874B4632465146584634
:10392000FFF714F82046FEF7B3FE012004B000F0C4
:1039300006B82846FFF75EFB4FF0FF30F6E730BCD5
:10394000BDE8C09FF0B585B0DDE90B640A9DA6B166
:10395000DCB15C2700972663022684F859600026B4
:1039600004AFCDE90246CDE90057FEF7EFFF204650
:10397000FEF78EFE049805B0F0BD502080F311884C
:10398000BFF34F8FBFF36F8FFEE7502080F3118896
:10399000BFF34F8FBFF36F8FFEE70000054841690B
:1039A00019B1006B18B10020704701207047022048
:1039B00070470000140000200148C06870470000F4
:1039C000140000202DE9F0412E4C0027206B28B177
:1039D000A069401CA0613846BDE8F081E668761C0D
:1039E000E66013D1606B006838B1502080F3118815
:1039F000BFF34F8FBFF36F8FFEE7606BA16B616307
:103A0000A063206A401C2062FFF72AF9A06ADFF851
:103A10007880864209D3606B0068A0B1606BC06893
:103A2000C5686868864211D2A0622068C06A00EB4F
:103A3000800158F82100012800D90127E0690028F9
:103A4000C9D00127C7E74FF0FF30EDE7281DFFF78A
:103A500041FAA86A18B105F11800FFF73BFAE86AC5
:103A60002169884200D9206100EB800108EB8100C8
:103A7000291DFFF77FFAE86A2168C96A8842CAD31C
:103A80000127C8E7140000206002002070B5040080
:103A90004FF0000133D01B4D2868844207D05020DE
:103AA00080F31188BFF34F8FBFF36F8FFEE7206D58
:103AB00038B1401E2065E36CE26A9A421FD040B1E3
:103AC0001DE0502080F31188BFF34F8FBFF36F8F3D
:103AD000FEE7201DFFF7FEF9E06CE062C0F1380060
:103AE000A061E06A2969884200D92861064900EB93
:103AF000800001EB8000211DFFF73CFA0121084600
:103B000070BD0000140000206002002070B5C06885
:103B1000C46854B104F118000646FFF7DBF9144DF0
:103B2000286B50B13146134815E0502080F31188BE
:103B3000BFF34F8FBFF36F8FFEE7201DFFF7CAF96A
:103B4000E06A2969884200D928610B4900EB8000AE
:103B500001EB8000211DFFF70DFAE06A2968C96AB0
:103B6000884202D90120E86170BD002070BD0000CC
:103B700014000020E8060020600200202DE9F04734
:103B80002C4D00242746286B38B1FFF7FFF9286B2E
:103B9000401E2863286B40B146E0502080F3118816
:103BA000BFF34F8FBFF36F8FFEE7A968224E01204E
:103BB000D1B3A6F5916980463068E0B1F068C46879
:103BC00004F11800FFF786F9201DFFF783F9E06A7A
:103BD0002969884200D9286100EB800109EB810046
:103BE000211DFFF7C7F9E06A2968C96A8842E3D353
:103BF000C5F81C80E0E70CB1FFF732F8AC694CB1B6
:103C00004FEA0806FFF7DEFE00B1EE61641EF9D14F
:103C10000020A861E86938B1084901273807086021
:103C2000BFF34F8FBFF36F8FFFF7D0F93846BDE872
:103C3000F087000014000020E806002004ED00E0FA
:103C400010B586B0FEF78CFD114C2068B8B100208D
:103C50000390049005AA04A903A8FFF759F9DDE928
:103C6000032102208DE8070000230AA10B48059AD2
:103C7000FFF768FE606010B106B0012010BD502053
:103C800080F31188BFF34F8FBFF36F8FFEE7000003
:103C900050000020546D7220537663003D2D0008C3
:103CA0002DE9FF411E46134602000A9D4FF0000019
:103CB00016D0144C2768002F0FD0CDE900130292C4
:103CC000062917DAFFF76AFE02284FF000030FD02B
:103CD000002269462068FFF71FFC04B0BDE8F081B0
:103CE000502080F31188BFF34F8FBFF36F8FFEE733
:103CF0002A46EEE70023324669463846FFF7BCFC09
:103D0000EBE7000050000020743D000800000000B8
:103D100000000000000000000000000000020000A1
:103D2000180000000000000000000000000000007B
:103D3000000000000102030406070809A086010034
:103D4000400D0300801A060000350C0040420F00B1
:103D500080841E0000093D0000127A000024F40057
:103D600000366E010048E801006CDC020000000033
:103D70000102030464656661756C745461736B00C1
:103D8000A03D00080000002094000000EE24000880
:103D9000343E000894000020948B0000FE240008AC
:103DA0000000000001000000100000000000000002
:103DB00000093D00000000000000000000000000BD
:103DC00000000000000000000000000000000000F3
:103DD00000000000000000000000000000000000E3
:103DE00000000000000000000000000000000000D3
:103DF00000000000000000000000000000000000C3
:103E000000000000000000000000000000000000B2
:103E100000000000000000000000000000000000A2
:103E2000000000000000000000000000AAAAAAAAEA
:043E3000000000008E
:040000050800018965
:00000001FF
